:100000000C94C3000C94E4000C94E4000C94E40001
:100010000C94E4000C9444190C9419190C94E40009
:100020000C94E4000C94E4000C94E4000C94E400C0
:100030000C94E4000C94E4000C94E4000C94E400B0
:100040000C94E4000C94E4000C94E4000C94E400A0
:100050000C94E4000C94E4000C94E4000C94E40090
:100060000C94E4000C94E4000C94E4000C94E40080
:100070000C94E4000C94E4000C94E4000C94E40070
:100080000C94E4000C94E4000C94E4000C94E40060
:100090000C94E4000C94E4000C94E4000C94E40050
:1000A0000C94E4000C94E4000C94E4000C94E40040
:1000B0000C94E4000C94E4000C94E4000C94E40030
:1000C0000C94E4000C94E4000C94E4000C940801FB
:1000D0000C94E4000C94E4000C94E4000C94E40010
:1000E0000C94E400BE02C202C202C002C202C202FA
:1000F000C202C202C202C202C202C202C202C202E0
:10010000C202C202C202C202C202C202C202C202CF
:10011000C202C202C202C202C202C202C202C202BF
:10012000C202C202C202B802AE02C202B002B202EF
:100130009A029C029E02A002A202A402A602A802A7
:10014000AA02AC02B402B602C202BA02C202BC02E5
:10015000C202660268026A026C026E0270027202D9
:100160007402760278027A027C027E0280028202A7
:100170008402860288028A028C028E029002920217
:1001800094029602980211241FBECFEFD1E2DEBF87
:10019000CDBF00E00CBF13E0A0E0B2E0E6E0F7E482
:1001A00000E00BBF02C007900D92A035B107D9F750
:1001B00014E0A0E5B3E001C01D92A834B107E1F757
:1001C0000E94181B0C9481230C940000CF93DF93A2
:1001D000CDB7DEB781ED90E0FC01108280ED90E0BC
:1001E000FC01108282ED90E026E0FC01208384ED8A
:1001F00090E027E4FC01208385ED90E0FC01108273
:1002000081ED90E028E9FC012083DF91CF910895F2
:100210001F920F920FB60F9200905B000F92112465
:100220000F931F932F933F934F935F936F937F93FE
:100230008F939F93AF93BF93EF93FF93CF93DF93EE
:10024000CDB7DEB72E97DEBFCDBF86ED90E0FC01C7
:1002500080818093DD038091DD038A3331F481E076
:1002600090E090935703809356038091DD0380368E
:1002700021F41092570310925603809156039091E7
:100280005703009739F58091DD03813420F0809188
:10029000DD038B3550F08091DD03803308F4C0C05E
:1002A0008091DD038A3308F0BBC0009150031091A8
:1002B00051038091DD030E944602282FC8018C5112
:1002C0009C4FFC012083C8010196909351038093B9
:1002D0005003A6C08091DD03813420F08091DD03BE
:1002E0008B3550F08091DD03803308F499C0809104
:1002F000DD038A3308F094C0009152031091530338
:100300008091DD030E944602282FC80187589C4F28
:10031000FC012083C80101969093530380935203FC
:1003200080E090E0A0E8BFE389839A83AB83BC833D
:1003300069817A818B819C8126E636E646E655E422
:100340000E940123DC01CB018D839E83AF83B8879C
:1003500011E06D817E818F81988520E030E040E85A
:100360005FE30E94B32188230CF010E0112329F0F1
:1003700081E090E09A87898746C011E06D817E8197
:100380008F81988520E03FEF4FE757E40E94FD22E0
:1003900018160CF010E0112361F169817A818B81CC
:1003A0009C8120E030E040E251E40E940123DC0126
:1003B000CB01BC01CD010E941F22DC01CB019A8739
:1003C000898712C080E791E09C878B878B859C850D
:1003D0008C01C8010197F1F78C011C870B87898577
:1003E0009A8501979A87898789859A85009751F719
:1003F00017C06D817E818F8198850E941F22DC014C
:10040000CB019A87898789859A859E878D878D8577
:100410009E858C01F8013197F1F78F011E870D87BA
:100420002E96DEBFCDBFDF91CF91FF91EF91BF91AF
:10043000AF919F918F917F916F915F914F913F917C
:100440002F911F910F910F9000925B000F900FBEA4
:100450000F901F901895CF93DF93CDB7DEB7109212
:100460005D0310925C0380915C0390915D03909317
:100470005B0380935A0380915A0390915B0390939E
:10048000590380935803DF91CF910895CF93DF9361
:100490000F92CDB7DEB789838981882F90E0AA2794
:1004A00097FDA095BA2F4AE050E020E530E0841B8C
:1004B000950B2817390708F465C08E589F4FFC012B
:1004C000EE0FFF1F0590F491E02D199481E45BC0BD
:1004D00082E459C083E457C084E455C085E453C026
:1004E00086E451C087E44FC088E44DC089E44BC026
:1004F0008AE449C08BE447C08CE445C08DE443C026
:100500008EE441C08FE43FC080E53DC081E53BC043
:1005100082E539C083E537C084E535C085E533C061
:1005200086E531C087E52FC088E52DC089E52BC061
:100530008AE529C080E327C081E325C082E323C088
:1005400083E321C084E31FC085E31DC086E31BC095
:1005500087E319C088E317C089E315C08CE213C094
:100560008EE211C08FE20FC08AE30DC08BE30BC097
:100570008BE209C08DE307C08FE305C083E203C0AF
:1005800083E201C08DE60F90DF91CF9108950F9324
:100590001F93CF93DF93CDB7DEB7AA970FB6F8942A
:1005A000DEBF0FBECDBF88E497E0FC011995A7C15F
:1005B00086ED90E021E4FC01208386ED90E024E5C7
:1005C000FC01208380E090E0A8ECB2E489839A8368
:1005D000AB83BC8369817A818B819C8126E636E678
:1005E00046E655E40E940123DC01CB018D839E8306
:1005F000AF83B88711E06D817E818F81988520E07F
:1006000030E040E85FE30E94B32188230CF010E063
:10061000112329F081E090E09A87898746C011E094
:100620006D817E818F81988520E03FEF4FE757E411
:100630000E94FD2218160CF010E0112361F169816F
:100640007A818B819C8120E030E040E251E40E947D
:100650000123DC01CB01BC01CD010E941F22DC0182
:10066000CB019A87898712C080E791E09C878B87AE
:100670008B859C858C01C8010197F1F78C011C8743
:100680000B8789859A8501979A87898789859A85B5
:10069000009751F717C06D817E818F8198850E94E8
:1006A0001F22DC01CB019A87898789859A859E87DD
:1006B0008D878D859E858C01F8013197F1F78F012B
:1006C0001E870D8786ED90E0FC01808180E090E040
:1006D000A8ECB2E48F87988BA98BBA8B6F85788949
:1006E00089899A8926E636E646E655E40E94012382
:1006F000DC01CB018B8B9C8BAD8BBE8B11E06B89AE
:100700007C898D899E8920E030E040E85FE30E948B
:10071000B32188230CF010E0112329F081E090E050
:10072000988F8F8B46C011E06B897C898D899E895B
:1007300020E03FEF4FE757E40E94FD2218160CF02F
:1007400010E0112361F16F85788989899A8920E009
:1007500030E040E251E40E940123DC01CB01BC0106
:10076000CD010E941F22DC01CB01988F8F8B12C01C
:1007700080E791E09A8F898F898D9A8D8C01C801CD
:100780000197F1F78C011A8F098F8F89988D019746
:10079000988F8F8B8F89988D009751F717C06B8931
:1007A0007C898D899E890E941F22DC01CB01988F54
:1007B0008F8B8F89988D9C8F8B8F8B8D9C8D8C01CF
:1007C000F8013197F1F78F011C8F0B8F86ED90E0C8
:1007D0002DE0FC01208386ED90E02AE0FC012083DF
:1007E00080E090E0A8ECB3E48D8F9E8FAF8FB8A32C
:1007F0006D8D7E8D8F8D98A126E636E646E655E412
:100800000E940123DC01CB0189A39AA3ABA3BCA363
:1008100011E069A17AA18BA19CA120E030E040E821
:100820005FE30E94B32188230CF010E0112329F02C
:1008300081E090E09EA38DA346C011E069A17AA15A
:100840008BA19CA120E03FEF4FE757E40E94FD22DF
:1008500018160CF010E0112361F16D8D7E8D8F8DD7
:1008600098A120E030E040E251E40E940123DC0145
:10087000CB01BC01CD010E941F22DC01CB019EA354
:100880008DA312C080E791E098A78FA38FA198A5B0
:100890008C01C8010197F1F78C0118A70FA38DA156
:1008A0009EA101979EA38DA38DA19EA1009751F7B4
:1008B00017C069A17AA18BA19CA10E941F22DC0113
:1008C000CB019EA38DA38DA19EA19AA789A789A5DF
:1008D0009AA58C01F8013197F1F78F011AA709A7A2
:1008E00084EE93E020E032E0B9010E947823009783
:1008F00031F481E090E0909355038093540380910C
:100900005403909155038130910509F051CE81E057
:1009100090E0AA960FB6F894DEBF0FBECDBFDF9170
:10092000CF911F910F910895CF93DF93CDB7DEB78D
:1009300010926D0310926C0311C080916C03909122
:100940006D038C519C4FFC01108280916C0390913F
:100950006D03019690936D0380936C0320916C035B
:1009600030916D038091500390915103821793074A
:1009700024F71092510310925003DF91CF91089504
:10098000CF93DF930F920F92CDB7DEB71A82198201
:100990000BC089819A8187589C4FFC011082898104
:1009A0009A8101969A83898380915203909153038F
:1009B00029813A818217930764F7109253031092AA
:1009C00052030F900F90DF91CF910895CF93DF9353
:1009D000CDB7DEB784EE93E0DF91CF9108950F930A
:1009E0001F93CF93DF93CDB7DEB7EA970FB6F89496
:1009F000DEBF0FBECDBF9AAF89AF0E9494048DC0F9
:100A000086ED90E029AD3AADF9012081FC0120830B
:100A100089AD9AAD01969AAF89AF80E090E0A0E8E9
:100A2000BFE389839A83AB83BC8369817A818B819D
:100A30009C8126E636E646E655E40E940123DC0169
:100A4000CB018D839E83AF83B88711E06D817E815A
:100A50008F81988520E030E040E85FE30E94B32179
:100A600088230CF010E0112329F081E090E09A87B0
:100A7000898746C011E06D817E818F81988520E055
:100A80003FEF4FE757E40E94FD2218160CF010E0EC
:100A9000112361F169817A818B819C8120E030E0B2
:100AA00040E251E40E940123DC01CB01BC01CD01F5
:100AB0000E941F22DC01CB019A87898712C080E740
:100AC00091E09C878B878B859C858C01C801019761
:100AD000F1F78C011C870B8789859A8501979A8786
:100AE000898789859A85009751F717C06D817E8126
:100AF0008F8198850E941F22DC01CB019A8789870C
:100B000089859A859E878D878D859E858C01F801C4
:100B10003197F1F78F011E870D8789AD9AADFC01E2
:100B20008081882309F06CCF80E090E0A8ECB2E4EB
:100B30008F87988BA98BBA8B6F85788989899A89D9
:100B400026E636E646E655E40E940123DC01CB01A9
:100B50008B8B9C8BAD8BBE8B11E06B897C898D89D7
:100B60009E8920E030E040E85FE30E94B3218823C3
:100B70000CF010E0112329F081E090E0988F8F8B2A
:100B800046C011E06B897C898D899E8920E03FEF0A
:100B90004FE757E40E94FD2218160CF010E01123D5
:100BA00061F16F85788989899A8920E030E040E297
:100BB00051E40E940123DC01CB01BC01CD010E9464
:100BC0001F22DC01CB01988F8F8B12C080E791E050
:100BD0009A8F898F898D9A8D8C01C8010197F1F7C1
:100BE0008C011A8F098F8F89988D0197988F8F8B21
:100BF0008F89988D009751F717C06B897C898D89F3
:100C00009E890E941F22DC01CB01988F8F8B8F89D8
:100C1000988D9C8F8B8F8B8D9C8D8C01F8013197DB
:100C2000F1F78F011C8F0B8F86ED90E0FC01808126
:100C300080E090E0A8ECB2E48D8F9E8FAF8FB8A3D8
:100C40006D8D7E8D8F8D98A126E636E646E655E4BD
:100C50000E940123DC01CB0189A39AA3ABA3BCA30F
:100C600011E069A17AA18BA19CA120E030E040E8CD
:100C70005FE30E94B32188230CF010E0112329F0D8
:100C800081E090E09EA38DA346C011E069A17AA106
:100C90008BA19CA120E03FEF4FE757E40E94FD228B
:100CA00018160CF010E0112361F16D8D7E8D8F8D83
:100CB00098A120E030E040E251E40E940123DC01F1
:100CC000CB01BC01CD010E941F22DC01CB019EA300
:100CD0008DA312C080E791E098A78FA38FA198A55C
:100CE0008C01C8010197F1F78C0118A70FA38DA102
:100CF0009EA101979EA38DA38DA19EA1009751F760
:100D000017C069A17AA18BA19CA10E941F22DC01BE
:100D1000CB019EA38DA38DA19EA19AA789A789A58A
:100D20009AA58C01F8013197F1F78F011AA709A74D
:100D300086ED90E02DE0FC01208386ED90E02AE036
:100D4000FC01208380E090E0AAEFB3E48BA79CA78E
:100D5000ADA7BEA76BA57CA58DA59EA526E636E60C
:100D600046E655E40E940123DC01CB018FA798AB36
:100D7000A9ABBAAB11E06FA578A989A99AA920E01F
:100D800030E040E85FE30E94B32188230CF010E0DC
:100D9000112329F081E090E09CAB8BAB46C011E0C1
:100DA0006FA578A989A99AA920E03FEF4FE757E4FA
:100DB0000E94FD2218160CF010E0112361F16BA5C2
:100DC0007CA58DA59EA520E030E040E251E40E9484
:100DD0000123DC01CB01BC01CD010E941F22DC01FB
:100DE000CB019CAB8BAB12C080E791E09EAB8DAB8F
:100DF0008DA99EA98C01C8010197F1F78C011EAB4A
:100E00000DAB8BA99CA901979CAB8BAB8BA99CA923
:100E1000009751F717C06FA578A989A99AA90E94D0
:100E20001F22DC01CB019CAB8BAB8BA99CA998AF9B
:100E30008FAB8FA998AD8C01F8013197F1F78F0135
:100E400018AF0FAB809150039091510302978C51D2
:100E50009C4FFC0180818F3471F4809150039091FC
:100E6000510301978C519C4FFC0180818B3419F404
:100E700081E090E002C080E090E0EA960FB6F8943E
:100E8000DEBF0FBECDBFDF91CF911F910F910895AF
:100E9000CF93DF93CDB7DEB7F8940E94E600789445
:100EA000DF91CF9108950F931F93CF93DF93CDB729
:100EB000DEB72E970FB6F894DEBF0FBECDBF0E94EF
:100EC000480785E092E00E94EF04009709F48AC089
:100ED00088E092E00E94EF04009709F483C080E06C
:100EE00090E0AAE7B4E489839A83AB83BC836981E9
:100EF0007A818B819C8126E636E646E655E40E949F
:100F00000123DC01CB018D839E83AF83B88711E081
:100F10006D817E818F81988520E030E040E85FE33D
:100F20000E94B32188230CF010E0112329F081E006
:100F300090E09A87898746C011E06D817E818F811C
:100F4000988520E03FEF4FE757E40E94FD221816F6
:100F50000CF010E0112361F169817A818B819C8111
:100F600020E030E040E251E40E940123DC01CB01AB
:100F7000BC01CD010E941F22DC01CB019A87898729
:100F800012C080E791E09C878B878B859C858C01C4
:100F9000C8010197F1F78C011C870B8789859A8519
:100FA00001979A87898789859A85009751F717C095
:100FB0006D817E818F8198850E941F22DC01CB018B
:100FC0009A87898789859A859E878D878D859E8555
:100FD0008C01C8010197F1F78C011E870D8781E014
:100FE00090E002C080E090E02E960FB6F894DEBF4D
:100FF0000FBECDBFDF91CF911F910F910895CF9379
:10100000DF93CDB7DEB784E192E00E94EF04DF9179
:10101000CF910895CF93DF93CDB7DEB789E392E008
:101020000E94EF04DF91CF910895CF93DF93CDB766
:10103000DEB78EE592E00E94EF04DF91CF91089534
:10104000CF93DF93CDB7DEB783E892E00E94EF0441
:10105000DF91CF910895CF93DF93CDB7DEB789EAC3
:1010600092E00E94EF04DF91CF910895CF93DF9338
:10107000CDB7DEB78EEC92E00E94EF04DF91CF9106
:1010800008950F931F93CF93DF93CDB7DEB76F977C
:101090000FB6F894DEBF0FBECDBF9F8F8E8FCE01EF
:1010A0000F9620EE32E04FE0F90100802F5F3F4FB6
:1010B000FC010082019641504423B1F7CE010F9606
:1010C0000E94EF0480E090E0A8ECB3E489839A8367
:1010D000AB83BC8369817A818B819C8126E636E66D
:1010E00046E655E40E940123DC01CB018D839E83FB
:1010F000AF83B88711E06D817E818F81988520E074
:1011000030E040E85FE30E94B32188230CF010E058
:10111000112329F081E090E09A87898746C011E089
:101120006D817E818F81988520E03FEF4FE757E406
:101130000E94FD2218160CF010E0112361F1698164
:101140007A818B819C8120E030E040E251E40E9472
:101150000123DC01CB01BC01CD010E941F22DC0177
:10116000CB019A87898712C080E791E09C878B87A3
:101170008B859C858C01C8010197F1F78C011C8738
:101180000B8789859A8501979A87898789859A85AA
:10119000009751F717C06D817E818F8198850E94DD
:1011A0001F22DC01CB019A87898789859A859E87D2
:1011B0008D878D859E858C01F8013197F1F78F0120
:1011C0001E870D878E8D9F8D0E94EF046F960FB640
:1011D000F894DEBF0FBECDBFDF91CF911F910F916D
:1011E00008950F931F93CF93DF93CDB7DEB76F971B
:1011F0000FB6F894DEBF0FBECDBF9F8F8E8FCE018E
:101200000F962FEE32E04FE0F90100802F5F3F4F45
:10121000FC010082019641504423B1F7CE010F96A4
:101220000E94EF0480E090E0A8ECB3E489839A8305
:10123000AB83BC8369817A818B819C8126E636E60B
:1012400046E655E40E940123DC01CB018D839E8399
:10125000AF83B88711E06D817E818F81988520E012
:1012600030E040E85FE30E94B32188230CF010E0F7
:10127000112329F081E090E09A87898746C011E028
:101280006D817E818F81988520E03FEF4FE757E4A5
:101290000E94FD2218160CF010E0112361F1698103
:1012A0007A818B819C8120E030E040E251E40E9411
:1012B0000123DC01CB01BC01CD010E941F22DC0116
:1012C000CB019A87898712C080E791E09C878B8742
:1012D0008B859C858C01C8010197F1F78C011C87D7
:1012E0000B8789859A8501979A87898789859A8549
:1012F000009751F717C06D817E818F8198850E947C
:101300001F22DC01CB019A87898789859A859E8770
:101310008D878D859E858C01F8013197F1F78F01BE
:101320001E870D878E8D9F8D0E94EF046F960FB6DE
:10133000F894DEBF0FBECDBFDF91CF911F910F910B
:101340000895CF93DF93CDB7DEB781E090E090931F
:10135000570380935603DF91CF910895CF93DF9386
:10136000CDB7DEB710925703109256030E94C00407
:10137000DF91CF910895CF93DF93CDB7DEB781E2B0
:1013800090E021E230E0F90120812F60FC01208310
:1013900082E290E022E230E0F9012081207FFC012E
:1013A00020838AE091E02AE031E0F9012081286180
:1013B000FC0120838BE091E02BE031E0F9012081FA
:1013C0002861FC012083DF91CF910895CF93DF93B3
:1013D000CDB7DEB781E290E021E230E0F901208173
:1013E0002F60FC01208382E290E022E230E0F901EC
:1013F0002081207FFC0120838AE091E02AE031E017
:10140000F90120812861FC0120838BE091E02BE031
:1014100031E0F90120812861FC012083DF91CF9127
:101420000895CF93DF93CDB7DEB70E94E609DF9131
:10143000CF910895CF93DF93CDB7DEB781E291E0EE
:10144000FC01108285E291E02FEFFC01208384E211
:1014500091E021E0FC01208389E291E0FC0110820F
:1014600088E291E02FEFFC0120838BE291E0FC0108
:1014700010828AE291E02FEFFC0120838DE291E05F
:10148000FC0110828CE291E02FEFFC01208380E2CE
:1014900091E029EAFC01208381E291E02BE0FC014C
:1014A0002083DF91CF910895CF93DF930F920F9216
:1014B000CDB7DEB789836A8388E291E02981FC0198
:1014C00020838AE291E02A81FC0120830F900F9013
:1014D000DF91CF910895CF93DF930F92CDB7DEB711
:1014E000898388E291E02AE231E04981F901408371
:1014F000FC0140830F90DF91CF9108950F931F93CC
:10150000CF93DF93CDB7DEB760970FB6F894DEBF09
:101510000FBECDBF988B8F878F859889AA2797FD9F
:10152000A095BA2FBC01CD010E944D22DC01CB0158
:1015300089839A83AB83BC8369817A818B819C8107
:1015400026E636E646E655E40E940123DC01CB019F
:101550008D839E83AF83B88711E06D817E818F81FB
:10156000988520E030E040E85FE30E94B3218823C3
:101570000CF010E0112329F081E090E09A87898730
:1015800046C011E06D817E818F81988520E03FEF1C
:101590004FE757E40E94FD2218160CF010E01123CB
:1015A00061F169817A818B819C8120E030E040E2A9
:1015B00051E40E940123DC01CB01BC01CD010E945A
:1015C0001F22DC01CB019A87898712C080E791E056
:1015D0009C878B878B859C858C01C8010197F1F7CF
:1015E0008C011C870B8789859A8501979A87898743
:1015F00089859A85009751F717C06D817E818F810B
:1016000098850E941F22DC01CB019A8789878985F2
:101610009A859E878D878D859E858C01C80101974F
:10162000F1F78C011E870D8760960FB6F894DEBF28
:101630000FBECDBFDF91CF911F910F910895CF9332
:10164000DF930F920F92CDB7DEB78A8319828A811A
:101650008F708A8382E290E0FC0180818983898196
:10166000807F898399818A81892B898382E290E0B6
:101670002981FC0120830F900F90DF91CF91089575
:10168000CF93DF93CDB7DEB786E00E941F0BDF91CB
:10169000CF910895CF93DF930F92CDB7DEB78983B3
:1016A000898169810E94540A86E00E941F0B0F9075
:1016B000DF91CF910895CF93DF93CDB7DEB789E067
:1016C0000E941F0BDF91CF910895CF93DF930F926C
:1016D000CDB7DEB78983898169810E94540A89E088
:1016E0000E941F0B0F90DF91CF910895CF93DF934E
:1016F000CDB7DEB785E00E941F0BDF91CF91089533
:10170000CF93DF930F920F92CDB7DEB789836A83B1
:1017100089816A810E94540A85E00E941F0B0F9004
:101720000F90DF91CF910895CF93DF930F92CDB7B4
:10173000DEB78983898169810E94540A85E00E940D
:101740001F0B0F90DF91CF910895CF93DF93CDB70B
:10175000DEB78AE00E941F0BDF91CF910895CF93EF
:10176000DF930F92CDB7DEB78983898169810E94AB
:10177000540A8AE00E941F0B0F90DF91CF910895C9
:10178000CF93DF930F920F92CDB7DEB789836A8331
:1017900089816A810E94540A8AE00E941F0B0F907F
:1017A0000F90DF91CF910895CF93DF93CDB7DEB740
:1017B00084E00E941F0BDF91CF910895CF93DF93B8
:1017C000CDB7DEB782E00E941F0BDF91CF91089565
:1017D000CF93DF93CDB7DEB781E00E941F0BDF917F
:1017E000CF910895CF93DF93CDB7DEB788E00E9405
:1017F0001F0BDF91CF910895CF93DF93CDB7DEB765
:1018000080E00E941F0BDF91CF910895CF93DF936B
:10181000CDB7DEB7F8940E94110A0E941A0A789494
:10182000DF91CF910895CF93DF93CDB7DEB70E94BC
:10183000060C86E966E90E94540ADF91CF9108956B
:10184000CF93DF93CDB7DEB780E390E0FC01108249
:1018500081E390E0FC01108287E091E0FC011082BE
:1018600088E091E0FC011082DF91CF910895CF9341
:10187000DF93CDB7DEB787E290E027E230E0F901F1
:1018800020812860FC01208388E290E028E230E09B
:10189000F9012081277FFC012083DF91CF910895FA
:1018A000CF93DF93CDB7DEB70E94200C0E94E609EC
:1018B0000E94370CDF91CF910895CF93DF930F9261
:1018C000CDB7DEB7198286E290E0FC018081898382
:1018D00089818860898388E290E02981FC012083E6
:1018E0000F90DF91CF910895CF93DF930F92CDB7F3
:1018F000DEB7198286E290E0FC01808189838981CC
:10190000877F898388E290E02981FC0120830F9002
:10191000DF91CF910895CF93DF93CDB7DEB78AE7FC
:1019200090E0FC0110828BE790E0FC0110828CE7D4
:1019300090E020E2FC01208380E590E020E8FC01BB
:1019400020838AE790E026E8FC012083DF91CF9195
:101950000895CF93DF930F920F92CDB7DEB78A83AE
:101960008A81883028F08BE790E028E0FC01208312
:101970008A8187708A838CE790E02A812062FC014B
:1019800020838AE790E02AE730E0F9012081206493
:10199000FC01208300008AE790E0FC018081882F11
:1019A00090E0807190700097B1F389E790E0FC01BE
:1019B000808189838AE790E02AE730E0F90120817D
:1019C0002061FC0120838BE790E0FC01108289817B
:1019D0000F900F90DF91CF910895CF93DF93CDB704
:1019E000DEB7F8940E94500C0E948B0C7894DF9123
:1019F000CF910895CF93DF93CDB7DEB70E94ED0C62
:101A0000DF91CF910895CF93DF93CDB7DEB78BE011
:101A10000E94A90C8093600386E00E94A90C809329
:101A2000610310925E0310925F038091600383381C
:101A300020F480916103803F60F481E080935F0334
:101A400081E090E090937303809372030E945D0C99
:101A500009C081E080935E031092730310927203B9
:101A60000E94740C8091720390917303DF91CF9167
:101A70000895CF93DF93CDB7DEB787E290E027E2FA
:101A800030E0F9012081276FFC01208388E290E09B
:101A900028E230E0F90120812078FC012083DF91E9
:101AA000CF910895CF93DF93CDB7DEB7F8940E941E
:101AB000390D7894DF91CF9108950F931F93CF93B1
:101AC000DF93CDB7DEB7C057D0400FB6F894DEBF76
:101AD0000FBECDBF80E090E0A0E8BFE389839A838A
:101AE000AB83BC8369817A818B819C8126E636E653
:101AF00046E655E40E940123DC01CB018D839E83E1
:101B0000AF83B88711E06D817E818F81988520E059
:101B100030E040E85FE30E94B32188230CF010E03E
:101B2000112329F081E090E09A87898746C011E06F
:101B30006D817E818F81988520E03FEF4FE757E4EC
:101B40000E94FD2218160CF010E0112361F169814A
:101B50007A818B819C8120E030E040E251E40E9458
:101B60000123DC01CB01BC01CD010E941F22DC015D
:101B7000CB019A87898712C080E791E09C878B8789
:101B80008B859C858C01C8010197F1F78C011C871E
:101B90000B8789859A8501979A87898789859A8590
:101BA000009751F717C06D817E818F8198850E94C3
:101BB0001F22DC01CB019A87898789859A859E87B8
:101BC0008D878D859E858C01F8013197F1F78F0106
:101BD0001E870D8788E290E028E230E0F90120813D
:101BE0002E7FFC01208388E290E028E230E0F901BA
:101BF00020812D7FFC01208388E290E020E3FC011E
:101C0000208388E290E028E230E0F901208124601E
:101C1000FC01208380E090E0A0EAB0E48F87988BFD
:101C2000A98BBA8B6F85788989899A8926E636E6E9
:101C300046E655E40E940123DC01CB018B8B9C8B93
:101C4000AD8BBE8B11E06B897C898D899E8920E0EC
:101C500030E040E85FE30E94B32188230CF010E0FD
:101C6000112329F081E090E0988F8F8B46C011E01E
:101C70006B897C898D899E8920E03FEF4FE757E48F
:101C80000E94FD2218160CF010E0112361F16F85FF
:101C9000788989899A8920E030E040E251E40E9405
:101CA0000123DC01CB01BC01CD010E941F22DC011C
:101CB000CB01988F8F8B12C080E791E09A8F898F2C
:101CC000898D9A8D8C01C8010197F1F78C011A8FCB
:101CD000098F8F89988D0197988F8F8B8F89988D19
:101CE000009751F717C06B897C898D899E890E9466
:101CF0001F22DC01CB01988F8F8B8F89988D9C8F51
:101D00008B8F8B8D9C8D8C01F8013197F1F78F01B2
:101D10001C8F0B8F88E290E028E230E0F9012081EF
:101D20002B7FFC01208380E090E0A0E8BFE38D8F53
:101D30009E8FAF8FB8A36D8D7E8D8F8D98A126E677
:101D400036E646E655E40E940123DC01CB0189A377
:101D50009AA3ABA3BCA311E069A17AA18BA19CA11A
:101D600020E030E040E85FE30E94B32188230CF0DC
:101D700010E0112329F081E090E09EA38DA346C0DE
:101D800011E069A17AA18BA19CA120E03FEF4FE770
:101D900057E40E94FD2218160CF010E0112361F1A7
:101DA0006D8D7E8D8F8D98A120E030E040E251E472
:101DB0000E940123DC01CB01BC01CD010E941F2246
:101DC000DC01CB019EA38DA312C080E791E098A710
:101DD0008FA38FA198A58C01C8010197F1F78C0101
:101DE00018A70FA38DA19EA101979EA38DA38DA1DE
:101DF0009EA1009751F717C069A17AA18BA19CA160
:101E00000E941F22DC01CB019EA38DA38DA19EA168
:101E10009AA789A789A59AA58C01F8013197F1F7AE
:101E20008F011AA709A788E290E028E230E0F901C3
:101E300020812E7FFC01208388E290E028E230E0C0
:101E4000F90120812D7FFC01208388E290E020E3CE
:101E5000FC01208388E290E028E230E0F901208153
:101E60002460FC01208380E090E0A0EAB0E48BA72E
:101E70009CA7ADA7BEA76BA57CA58DA59EA526E6B4
:101E800036E646E655E40E940123DC01CB018FA72C
:101E900098ABA9ABBAAB11E06FA578A989A99AA9AB
:101EA00020E030E040E85FE30E94B32188230CF09B
:101EB00010E0112329F081E090E09CAB8BAB46C091
:101EC00011E06FA578A989A99AA920E03FEF4FE713
:101ED00057E40E94FD2218160CF010E0112361F166
:101EE0006BA57CA58DA59EA520E030E040E251E4E5
:101EF0000E940123DC01CB01BC01CD010E941F2205
:101F0000DC01CB019CAB8BAB12C080E791E09EABB8
:101F10008DAB8DA99EA98C01C8010197F1F78C01A9
:101F20001EAB0DAB8BA99CA901979CAB8BAB8BA96E
:101F30009CA9009751F717C06FA578A989A99AA9FC
:101F40000E941F22DC01CB019CAB8BAB8BA99CA90F
:101F500098AF8FAB8FA998AD8C01F8013197F1F74D
:101F60008F0118AF0FAB88E290E028E230E0F90172
:101F700020812B7FFC01208380E090E0A0E8BFE37C
:101F800089AF9AAFABAFBCAF69AD7AAD8BAD9CAD4D
:101F900026E636E646E655E40E940123DC01CB0145
:101FA0009E01235C3F4FF90180839183A283B38319
:101FB00011E0CE01CD96FC01608171818281938117
:101FC00020E030E040E85FE30E94B32188230CF07A
:101FD00010E0112349F0CE018F5B9F4F21E030E0EC
:101FE000FC01318320836EC011E0CE01CD96FC014F
:101FF000608171818281938120E03FEF4FE757E458
:102000000E94FD2218160CF010E0112309F449C0BB
:1020100069AD7AAD8BAD9CAD20E030E040E251E49B
:102020000E940123DC01CB018E010F5B1F4FBC011D
:10203000CD010E941F22DC01CB01F8019183808336
:1020400027C0CE018D5B9F4F20E731E0FC0131833B
:102050002083CE018D5B9F4FFC01808191818C019B
:10206000C8010197F1F78C01CE018D5B9F4FFC01F8
:1020700011830083CE018F5B9F4F9E012F5B3F4FEB
:10208000F9012081318121503040FC0131832083CE
:10209000CE018F5B9F4FFC0180819181009789F673
:1020A0002EC08E010F5B1F4FCE01CD96FC016081CB
:1020B0007181828193810E941F22DC01CB01F80192
:1020C00091838083CE018B5B9F4F9E012F5B3F4F9F
:1020D000F90120813181FC0131832083CE018B5BAA
:1020E0009F4FFC01808191818C01C8010197F1F71C
:1020F0008C01CE018B5B9F4FFC011183008388E232
:1021000090E028E230E0F90120812E7FFC0120835D
:1021100088E290E028E230E0F90120812D7FFC0187
:10212000208388E290E020E3FC01208388E290E0B5
:1021300028E230E0F90120812460FC0120839E0127
:10214000295B3F4F80E090E0A0EAB0E4F901808392
:102150009183A283B3838E01055B1F4FCE01895B00
:102160009F4FFC01608171818281938126E636E672
:1021700046E655E40E940123DC01CB01F80180838F
:102180009183A283B383CE01855B9F4F11E0FC0155
:10219000608171818281938120E030E040E85FE3DB
:1021A0000E94B32188230CF010E0112349F0CE01E6
:1021B000815B9F4F21E030E0FC013183208374C0BC
:1021C000CE01855B9F4F11E0FC01608171818281AE
:1021D000938120E03FEF4FE757E40E94FD2218165D
:1021E0000CF010E0112309F44DC0CE01895B9F4F24
:1021F000FC01608171818281938120E030E040E2C6
:1022000051E40E940123DC01CB018E01015B1F4FD1
:10221000BC01CD010E941F22DC01CB01F80191839A
:10222000808327C0CE018F5A9F4F20E731E0FC0109
:1022300031832083CE018F5A9F4FFC018081918191
:102240008C01C8010197F1F78C01CE018F5A9F4F85
:10225000FC0111830083CE01815B9F4F9E01215BB6
:102260003F4FF9012081318121503040FC01318301
:102270002083CE01815B9F4FFC018081918100977B
:1022800089F62FC08E01015B1F4FCE01855B9F4FEA
:10229000FC0160817181828193810E941F22DC0197
:1022A000CB01F80191838083CE018D5A9F4F9E010F
:1022B000215B3F4FF90120813181FC013183208373
:1022C000CE018D5A9F4FFC01808191818C01C80104
:1022D0000197F1F78C01CE018D5A9F4FFC011183BC
:1022E000008388E290E028E230E0F90120812B7F32
:1022F000FC0120839E012B5A3F4F80E090E0A0E834
:10230000BFE3F90180839183A283B3838E01075ACF
:102310001F4FCE018B5A9F4FFC01608171818281DA
:10232000938126E636E646E655E40E940123DC0169
:10233000CB01F80180839183A283B383CE01875AB6
:102340009F4F11E0FC01608171818281938120E0C7
:1023500030E040E85FE30E94B32188230CF010E0F6
:10236000112349F0CE01835A9F4F21E030E0FC0158
:102370003183208374C0CE01875A9F4F11E0FC0146
:10238000608171818281938120E03FEF4FE757E4C4
:102390000E94FD2218160CF010E0112309F44DC024
:1023A000CE018B5A9F4FFC016081718182819381A4
:1023B00020E030E040E251E40E940123DC01CB0147
:1023C0008E01035A1F4FBC01CD010E941F22DC0168
:1023D000CB01F8019183808327C0CE01815A9F4FA2
:1023E00020E731E0FC0131832083CE01815A9F4FE9
:1023F000FC01808191818C01C8010197F1F78C016A
:10240000CE01815A9F4FFC0111830083CE01835A74
:102410009F4F9E01235A3F4FF90120813181215066
:102420003040FC0131832083CE01835A9F4FFC0151
:1024300080819181009789F62FC08E01035A1F4F2A
:10244000CE01875A9F4FFC01608171818281938107
:102450000E941F22DC01CB01F80191838083CE0111
:102460008F599F4F9E01235A3F4FF901208131819F
:10247000FC0131832083CE018F599F4FFC01808165
:1024800091818C01C8010197F1F78C01CE018F5920
:102490009F4FFC011183008388E290E028E230E046
:1024A000F90120812E7FFC01208388E290E028E260
:1024B00030E0F90120812D7FFC01208388E290E04B
:1024C00020E2FC01208388E290E028E230E0F9017C
:1024D00020812460FC0120839E012D593F4F80E024
:1024E00090E0A0EAB0E4F90180839183A283B383F2
:1024F0008E0109591F4FCE018D599F4FFC016081FC
:1025000071818281938126E636E646E655E40E9493
:102510000123DC01CB01F80180839183A283B38383
:10252000CE0189599F4F11E0FC0160817181828148
:10253000938120E030E040E85FE30E94B3218823EC
:102540000CF010E0112349F0CE0185599F4F21E096
:1025500030E0FC013183208374C0CE0189599F4F44
:1025600011E0FC01608171818281938120E03FEF65
:102570004FE757E40E94FD2218160CF010E01123DB
:1025800009F44DC0CE018D599F4FFC0160817181CE
:102590008281938120E030E040E251E40E940123F7
:1025A000DC01CB018E0105591F4FBC01CD010E94FA
:1025B0001F22DC01CB01F8019183808327C0CE016B
:1025C00083599F4F20E731E0FC0131832083CE0106
:1025D00083599F4FFC01808191818C01C801019733
:1025E000F1F78C01CE0183599F4FFC0111830083C9
:1025F000CE0185599F4F9E0125593F4FF9012081FA
:10260000318121503040FC0131832083CE01855936
:102610009F4FFC0180819181009789F62FC08E0128
:1026200005591F4FCE0189599F4FFC01608171816F
:10263000828193810E941F22DC01CB01F8019183EA
:102640008083CE0181599F4F9E0125593F4FF9014B
:1026500020813181FC0131832083CE0181599F4F3C
:10266000FC01808191818C01C8010197F1F78C01F7
:10267000CE0181599F4FFC011183008388E290E0D5
:1026800028E230E0F90120812B7FFC012083C05932
:10269000DF4F0FB6F894DEBF0FBECDBFDF91CF91F5
:1026A0001F910F9108950F931F93CF93DF93CDB791
:1026B000DEB72E970FB6F894DEBF0FBECDBF80E019
:1026C00090E0A0E8BFE389839A83AB83BC836981F0
:1026D0007A818B819C8126E636E646E655E40E94A7
:1026E0000123DC01CB018D839E83AF83B88711E08A
:1026F0006D817E818F81988520E030E040E85FE346
:102700000E94B32188230CF010E0112329F081E00E
:1027100090E09A87898746C011E06D817E818F8124
:10272000988520E03FEF4FE757E40E94FD221816FE
:102730000CF010E0112361F169817A818B819C8119
:1027400020E030E040E251E40E940123DC01CB01B3
:10275000BC01CD010E941F22DC01CB019A87898731
:1027600012C080E791E09C878B878B859C858C01CC
:10277000C8010197F1F78C011C870B8789859A8521
:1027800001979A87898789859A85009751F717C09D
:102790006D817E818F8198850E941F22DC01CB0193
:1027A0009A87898789859A859E878D878D859E855D
:1027B0008C01C8010197F1F78C011E870D8788E213
:1027C0000E94F91381E00E94F91386E00E94F91338
:1027D0008EE00E94F91380E80E94F9132E960FB63E
:1027E000F894DEBF0FBECDBFDF91CF911F910F9147
:1027F00008950F931F93CF93DF93CDB7DEB76E97F6
:102800000FB6F894DEBF0FBECDBF8E8F8E8D89833D
:102810008981807F898388E290E028E230E0F901B5
:1028200020812F70FC01208388E290E028E230E0D4
:10283000F90130812981232BFC01208388E290E07B
:1028400028E230E0F90120812E7FFC01208388E21C
:1028500090E028E230E0F90120812D7FFC01208307
:1028600088E290E028E230E0F90120812460FC0158
:10287000208380E090E0A0EAB0E48A839B83AC836D
:10288000BD836A817B818C819D8126E636E646E6A2
:1028900055E40E940123DC01CB018E839F83A8872E
:1028A000B98711E06E817F818885998520E030E0CD
:1028B00040E85FE30E94B32188230CF010E011236D
:1028C00029F081E090E09B878A8746C011E06E8105
:1028D0007F818885998520E03FEF4FE757E40E948C
:1028E000FD2218160CF010E0112361F16A817B8142
:1028F0008C819D8120E030E040E251E40E94012380
:10290000DC01CB01BC01CD010E941F22DC01CB0107
:102910009B878A8712C080E791E09D878C878C8592
:102920009D858C01C8010197F1F78C011D870C87EB
:102930008A859B8501979B878A878A859B850097D7
:1029400051F717C06E817F81888599850E941F226B
:10295000DC01CB019B878A878A859B859F878E8731
:102960008E859F858C01F8013197F1F78F011F87C4
:102970000E8788E290E028E230E0F90120812B7F89
:10298000FC0120838E8D8F708E8F8E8D8295807F3F
:102990008E8F88E290E028E230E0F90120812F70EC
:1029A000FC01208388E290E028E230E0F9013081E8
:1029B0002E8D232BFC01208388E290E028E230E07A
:1029C000F90120812E7FFC01208388E290E028E23B
:1029D00030E0F90120812D7FFC01208388E290E026
:1029E00028E230E0F90120812460FC01208380E0AE
:1029F00090E0A0EAB0E4888B998BAA8BBB8B6889A6
:102A000079898A899B8926E636E646E655E40E945E
:102A10000123DC01CB018C8B9D8BAE8BBF8B11E036
:102A20006C897D898E899F8920E030E040E85FE3F2
:102A30000E94B32188230CF010E0112329F081E0DB
:102A400090E0998F888F46C011E06C897D898E89CE
:102A50009F8920E03FEF4FE757E40E94FD221816C0
:102A60000CF010E0112361F1688979898A899B89CA
:102A700020E030E040E251E40E940123DC01CB0180
:102A8000BC01CD010E941F22DC01CB01998F888FF0
:102A900012C080E791E09B8F8A8F8A8D9B8D8C017D
:102AA000C8010197F1F78C011B8F0A8F888D998DD2
:102AB0000197998F888F888D998D009751F717C04E
:102AC0006C897D898E899F890E941F22DC01CB0140
:102AD000998F888F888D998D9D8F8C8F8C8D9D8DF2
:102AE0008C01F8013197F1F78F011D8F0C8F88E26F
:102AF00090E028E230E0F90120812B7FFC01208367
:102B00006E960FB6F894DEBF0FBECDBFDF91CF91AA
:102B10001F910F9108950F931F93CF93DF93CDB71C
:102B2000DEB76E970FB6F894DEBF0FBECDBF8E8FA7
:102B30008E8D89838981807F898388E290E028E275
:102B400030E0F90120812F70FC01208388E290E0C1
:102B500028E230E0F90130812981232BFC01208318
:102B600088E290E028E230E0F90120812160FC0158
:102B7000208388E290E028E230E0F90120812D7F77
:102B8000FC01208388E290E028E230E0F901208116
:102B90002460FC01208380E090E0A0EAB0E48A8316
:102BA0009B83AC83BD836A817B818C819D8126E67A
:102BB00036E646E655E40E940123DC01CB018E8314
:102BC0009F83A887B98711E06E817F818885998569
:102BD00020E030E040E85FE30E94B32188230CF05E
:102BE00010E0112329F081E090E09B878A8746C09E
:102BF00011E06E817F818885998520E03FEF4FE766
:102C000057E40E94FD2218160CF010E0112361F128
:102C10006A817B818C819D8120E030E040E251E43B
:102C20000E940123DC01CB01BC01CD010E941F22C7
:102C3000DC01CB019B878A8712C080E791E09D87EA
:102C40008C878C859D858C01C8010197F1F78C01DB
:102C50001D870C878A859B8501979B878A878A8534
:102C60009B85009751F717C06E817F818885998574
:102C70000E941F22DC01CB019B878A878A859B8566
:102C80009F878E878E859F858C01F8013197F1F79C
:102C90008F011F870E8788E290E028E230E0F9017B
:102CA00020812B7FFC0120838E8D8F708E8F8E8DE7
:102CB0008295807F8E8F88E290E028E230E0F901F3
:102CC00020812F70FC01208388E290E028E230E030
:102CD000F90130812E8D232BFC01208388E290E0C6
:102CE00028E230E0F90120812160FC01208388E2A4
:102CF00090E028E230E0F90120812D7FFC01208363
:102D000088E290E028E230E0F90120812460FC01B3
:102D1000208380E090E0A0EAB0E4888B998BAA8BB6
:102D2000BB8B688979898A899B8926E636E646E6DF
:102D300055E40E940123DC01CB018C8B9D8BAE8B73
:102D4000BF8B11E06C897D898E899F8920E030E0FE
:102D500040E85FE30E94B32188230CF010E01123C8
:102D600029F081E090E0998F888F46C011E06C894E
:102D70007D898E899F8920E03FEF4FE757E40E94CD
:102D8000FD2218160CF010E0112361F16889798991
:102D90008A899B8920E030E040E251E40E940123CF
:102DA000DC01CB01BC01CD010E941F22DC01CB0163
:102DB000998F888F12C080E791E09B8F8A8F8A8DD0
:102DC0009B8D8C01C8010197F1F78C011B8F0A8F35
:102DD000888D998D0197998F888F888D998D00970F
:102DE00051F717C06C897D898E899F890E941F22A7
:102DF000DC01CB01998F888F888D998D9D8F8C8F69
:102E00008C8D9D8D8C01F8013197F1F78F011D8F0D
:102E10000C8F88E290E028E230E0F90120812B7FDE
:102E2000FC0120836E960FB6F894DEBF0FBECDBFB7
:102E3000DF91CF911F910F910895CF93DF93CDB77D
:102E4000DEB780E80E94F913DF91CF910895CF9308
:102E5000DF930F920F92CDB7DEB79A8389830BC0B1
:102E600089819A81FC0180810E948B1589819A81D8
:102E700001969A83898389819A81FC0180818823C4
:102E800079F70F900F90DF91CF910895CF93DF9353
:102E90000F920F92CDB7DEB789836A838981882F1D
:102EA00090E08230910599F08330910524F48130CF
:102EB000910541F01BC08330910571F0843091057C
:102EC00081F014C08A8181580E94F91310C08A8150
:102ED00081540E94F9130BC08A818D560E94F91308
:102EE00006C08A818D520E94F91301C000000F9024
:102EF0000F90DF91CF910895CF93DF93CDB7DEB7D9
:102F000027970FB6F894DEBF0FBECDBF8A836B83C1
:102F10005D834C833F832E8319828A81882319F035
:102F20008B81882319F40E941D1704C08A816B814C
:102F30000E9446178E819F818530910519F0898105
:102F40008130B1F48C819D8120E137E2B9010E948A
:102F500064239B01C901C096909371038093700311
:102F600080917003909171030E948B1581E0898399
:102F70008E819F818430910519F08981813019F506
:102F80008C819D8128EE33E0B9010E9464239B016E
:102F9000C901909375038093740380917403909199
:102FA00075032AE030E0B9010E946423C096909333
:102FB000E3038093E2038091E2039091E3030E9494
:102FC0008B1581E089838E819F818330910519F073
:102FD0008981813019F58C819D8124E630E0B90129
:102FE0000E9464239B01C90190937503809374032D
:102FF00080917403909175032AE030E0B9010E943A
:103000006423C0969093DF038093DE038091DE03F8
:103010009091DF030E948B1581E089838E819F81CF
:103020008230910519F08981813019F58C819D815B
:103030002AE030E0B9010E9464239B01C90190930A
:1030400075038093740380917403909175032AE053
:1030500030E0B9010E946423C09690937803809376
:10306000770380917703909178030E948B1581E01C
:1030700089838E819F818130910519F0898181300A
:1030800091F48C819D812AE030E0B9010E94642393
:10309000C0969093E1038093E0038091E0039091C8
:1030A000E1030E948B158E819F81863091051CF073
:1030B00085E40E948B1527960FB6F894DEBF0FBEED
:1030C000CDBFDF91CF910895CF93DF930F920F92F1
:1030D000CDB7DEB79A8389830E94520D0E945D0DA1
:1030E0000E94531381E065E00E94461789819A810E
:1030F0000E94271782E061E00E9446178EEF92E05F
:103100000E9427170F900F90DF91CF910895CF93D2
:10311000DF93CDB7DEB70E94520D0E945D0D0E9475
:10312000531381E063E00E9446178DE093E00E9414
:10313000271782E062E00E9446178EEF92E00E941D
:103140002717DF91CF910895CF93DF93CDB7DEB7E7
:103150008DE290E02DE230E0F90120812F7EFC012C
:1031600020838EE290E02EE230E0F90120812061A0
:10317000FC012083DF91CF910895CF93DF93CDB7EA
:10318000DEB78DE290E02DE230E0F90120812F7D65
:10319000FC0120838EE290E02EE230E0F9012081F4
:1031A0002062FC012083DF91CF910895CF93DF93BC
:1031B000CDB7DEB70E94E6090E94A4180E94BD1890
:1031C000DF91CF910895CF93DF93CDB7DEB7F89419
:1031D0008AE690E02AE630E0F90120812260FC01D5
:1031E00020838DE390E02DE330E0F9012081206120
:1031F000FC0120837894DF91CF910895CF93DF93E2
:10320000CDB7DEB7F8948AE690E02AE630E0F9011F
:1032100020812860FC0120838DE390E02DE330E0E5
:10322000F90120812062FC0120837894DF91CF9105
:1032300008951F920F920FB60F9211248F939F93B0
:10324000AF93BF93CF93DF93CDB7DEB78091680381
:1032500090916903A0916A03B0916B030196A11D3F
:10326000B11D8093680390936903A0936A03B093A0
:103270006B03DF91CF91BF91AF919F918F910F9091
:103280000FBE0F901F9018951F920F920FB60F92BE
:1032900011248F939F93AF93BF93CF93DF93CDB7B9
:1032A000DEB78091640390916503A0916603B091AD
:1032B00067030196A11DB11D80936403909365037C
:1032C000A0936603B0936703DF91CF91BF91AF9155
:1032D0009F918F910F900FBE0F901F901895CF93D5
:1032E000DF93CDB7DEB72A970FB6F894DEBF0FBED7
:1032F000CDBF9A87898780E090E0DC0189839A833B
:10330000AB83BC831D821E821F82188689859A85A5
:10331000CC01A0E0B0E0BC01CD010E944B22DC0159
:10332000CB01BC01CD0128E431EE42E850E40E941B
:10333000B721DC01CB0189839A83AB83BC8369818C
:103340007A818B819C810E941F22DC01CB01CC0100
:10335000A0E0B0E08D839E83AF83B88710926803AE
:103360001092690310926A0310926B031092640327
:1033700010926503109266031092670301C000006B
:10338000209168033091690340916A0350916B0367
:1033900071E08D819E81AF81B885281739074A0772
:1033A0005B0708F470E0209164033091650340915D
:1033B00066035091670361E08D819E81AF81B8857E
:1033C000281739074A075B0708F460E0872F862B28
:1033D0008823A9F200000E94FC0B2A960FB6F894ED
:1033E000DEBF0FBECDBFDF91CF910895CF93DF93A6
:1033F000CDB7DEB72A970FB6F894DEBF0FBECDBFAC
:103400009A87898780E090E0DC0189839A83AB8387
:10341000BC831D821E821F82188689859A85CC01F5
:10342000A0E0B0E0BC01CD010E944B22DC01CB0149
:10343000BC01CD0125EE30ED4AEA50E40E94B721EF
:10344000DC01CB0189839A83AB83BC8369817A8158
:103450008B819C810E941F22DC01CB018D839E8386
:10346000AF83B887109268031092690310926A03C1
:1034700010926B0301C00000209168033091690332
:1034800040916A0350916B038D819E81AF81B88515
:1034900082179307A407B50770F700000E94FC0B82
:1034A0002A960FB6F894DEBF0FBECDBFDF91CF9145
:1034B0000895CF93DF930F920F92CDB7DEB79A8323
:1034C00089830E94400B89819A810E94F6190F908E
:1034D0000F90DF91CF910895CF93DF930F920F92CA
:1034E000CDB7DEB79A8389830E945B0B89819A816D
:1034F0000E94F6190F900F90DF91CF910895CF930E
:10350000DF930F920F92CDB7DEB79A8389830E9423
:10351000760B89819A810E946F190F900F90DF912D
:10352000CF910895CF93DF930F920F92CDB7DEB76F
:103530009A8389830E94A50B89819A810E946F19C1
:103540000F900F90DF91CF910895CF93DF930F925B
:103550000F92CDB7DEB79A8389830E94D40B8981FD
:103560009A81880F991F9A83898389819A810E9401
:103570006F190F900F90DF91CF910895CF93DF9344
:103580000F920F92CDB7DEB79A8389830E94DE0B2C
:1035900089819A81880F991F9A83898389819A8169
:1035A0000E946F190F900F90DF91CF910895CF93E4
:1035B000DF930F920F92CDB7DEB79A8389830E9473
:1035C000E80B89819A81880F991F9A838983898161
:1035D0009A810E946F190F900F90DF91CF910895FB
:1035E000CF93DF930F920F92CDB7DEB79A83898383
:1035F0000E94F20B89819A81880F991F9A8389838F
:1036000089819A810E946F190F900F90DF91CF915D
:103610000895CF93DF93CDB7DEB7F8940E94D61804
:103620000E94E3180E94FE187894DF91CF910895CC
:103630000F931F93CF93DF93CDB7DEB7CE57D04014
:103640000FB6F894DEBF0FBECDBFF8940E948B0C6E
:103650000E94200C789486E966E90E94540A0E9430
:1036600048070E94091B80E991E00E947E0A80E0E1
:1036700090E8ABE3B5E489839A83AB83BC8369812B
:103680007A818B819C8126E636E646E655E40E94E7
:103690000123DC01CB018D839E83AF83B88711E0CA
:1036A0006D817E818F81988520E030E040E85FE386
:1036B0000E94B32188230CF010E0112329F081E04F
:1036C00090E09A87898746C011E06D817E818F8165
:1036D000988520E03FEF4FE757E40E94FD2218163F
:1036E0000CF010E0112361F169817A818B819C815A
:1036F00020E030E040E251E40E940123DC01CB01F4
:10370000BC01CD010E941F22DC01CB019A87898771
:1037100012C080E791E09C878B878B859C858C010C
:10372000C8010197F1F78C011C870B8789859A8561
:1037300001979A87898789859A85009751F717C0DD
:103740006D817E818F8198850E941F22DC01CB01D3
:103750009A87898789859A859E878D878D859E859D
:103760008C01F8013197F1F78F011E870D870E94B8
:10377000530785E092E00E94EF04009721F084EE69
:1037800093E00E94641888E893E10E947E0A0E94F8
:10379000FF07009729F08BE193E00E94641804C0B2
:1037A00084E293E00E94641880E090E0AAEFB4E421
:1037B0008F87988BA98BBA8B6F85788989899A892D
:1037C00026E636E646E655E40E940123DC01CB01FD
:1037D0008B8B9C8BAD8BBE8B11E06B897C898D892B
:1037E0009E8920E030E040E85FE30E94B321882317
:1037F0000CF010E0112329F081E090E0988F8F8B7E
:1038000046C011E06B897C898D899E8920E03FEF5D
:103810004FE757E40E94FD2218160CF010E0112328
:1038200061F16F85788989899A8920E030E040E2EA
:1038300051E40E940123DC01CB01BC01CD010E94B7
:103840001F22DC01CB01988F8F8B12C080E791E0A3
:103850009A8F898F898D9A8D8C01C8010197F1F714
:103860008C011A8F098F8F89988D0197988F8F8B74
:103870008F89988D009751F717C06B897C898D8946
:103880009E890E941F22DC01CB01988F8F8B8F892C
:10389000988D9C8F8B8F8B8D9C8D8C01F80131972F
:1038A000F1F78F011C8F0B8F8DE293E00E94F108DE
:1038B00080E090E0AAEFB3E48D8F9E8FAF8FB8A326
:1038C0006D8D7E8D8F8D98A126E636E646E655E411
:1038D0000E940123DC01CB0189A39AA3ABA3BCA363
:1038E00011E069A17AA18BA19CA120E030E040E821
:1038F0005FE30E94B32188230CF010E0112329F02C
:1039000081E090E09EA38DA346C011E069A17AA159
:103910008BA19CA120E03FEF4FE757E40E94FD22DE
:1039200018160CF010E0112361F16D8D7E8D8F8DD6
:1039300098A120E030E040E251E40E940123DC0144
:10394000CB01BC01CD010E941F22DC01CB019EA353
:103950008DA312C080E791E098A78FA38FA198A5AF
:103960008C01C8010197F1F78C0118A70FA38DA155
:103970009EA101979EA38DA38DA19EA1009751F7B3
:1039800017C069A17AA18BA19CA10E941F22DC0112
:10399000CB019EA38DA38DA19EA19AA789A789A5DE
:1039A0009AA58C01F8013197F1F78F011AA709A7A1
:1039B0000E94130C80E090E0AAEFB3E48BA79CA7D1
:1039C000ADA7BEA76BA57CA58DA59EA526E636E670
:1039D00046E655E40E940123DC01CB018FA798AB9A
:1039E000A9ABBAAB11E06FA578A989A99AA920E083
:1039F00030E040E85FE30E94B32188230CF010E040
:103A0000112329F081E090E09CAB8BAB46C011E024
:103A10006FA578A989A99AA920E03FEF4FE757E45D
:103A20000E94FD2218160CF010E0112361F16BA525
:103A30007CA58DA59EA520E030E040E251E40E94E7
:103A40000123DC01CB01BC01CD010E941F22DC015E
:103A5000CB019CAB8BAB12C080E791E09EAB8DABF2
:103A60008DA99EA98C01C8010197F1F78C011EABAD
:103A70000DAB8BA99CA901979CAB8BAB8BA99CA987
:103A8000009751F717C06FA578A989A99AA90E9434
:103A90001F22DC01CB019CAB8BAB8BA99CA998AFFF
:103AA0008FAB8FA998AD8C01F8013197F1F78F0199
:103AB00018AF0FAB86E990E00E94591A0E94FC0BE8
:103AC00080E090E0AAEFB3E489AF9AAFABAFBCAFB0
:103AD00069AD7AAD8BAD9CAD26E636E646E655E49B
:103AE0000E940123DC01CB019E01235C3F4FF901C1
:103AF00080839183A283B38311E0CE01CD96FC0134
:103B0000608171818281938120E030E040E85FE351
:103B10000E94B32188230CF010E0112349F0CE015C
:103B20008F5B9F4F21E030E0FC01318320836EC02A
:103B300011E0CE01CD96FC0160817181828193817B
:103B400020E03FEF4FE757E40E94FD2218160CF0EB
:103B500010E0112309F449C069AD7AAD8BAD9CAD7D
:103B600020E030E040E251E40E940123DC01CB017F
:103B70008E010F5B1F4FBC01CD010E941F22DC0193
:103B8000CB01F8019183808327C0CE018D5B9F4FCD
:103B900020E731E0FC0131832083CE018D5B9F4F14
:103BA000FC01808191818C01C8010197F1F78C01A2
:103BB000CE018D5B9F4FFC0111830083CE018F5B93
:103BC0009F4F9E012F5B3F4FF90120813181215092
:103BD0003040FC0131832083CE018F5B9F4FFC017D
:103BE00080819181009789F62EC08E010F5B1F4F57
:103BF000CE01CD96FC0160817181828193810E940A
:103C00001F22DC01CB01F80191838083CE018B5B05
:103C10009F4F9E012F5B3F4FF90120813181FC01B5
:103C200031832083CE018B5B9F4FFC01808191818A
:103C30008C01C8010197F1F78C01CE018B5B9F4F7E
:103C4000FC011183008382E393E00E94EF049E0154
:103C5000295B3F4F80E090E0AAE7B4E4F90180835C
:103C60009183A283B3838E01055B1F4FCE01895BD5
:103C70009F4FFC01608171818281938126E636E647
:103C800046E655E40E940123DC01CB01F801808364
:103C90009183A283B383CE01855B9F4F11E0FC012A
:103CA000608171818281938120E030E040E85FE3B0
:103CB0000E94B32188230CF010E0112349F0CE01BB
:103CC000815B9F4F21E030E0FC013183208374C091
:103CD000CE01855B9F4F11E0FC0160817181828183
:103CE000938120E03FEF4FE757E40E94FD22181632
:103CF0000CF010E0112309F44DC0CE01895B9F4FF9
:103D0000FC01608171818281938120E030E040E29A
:103D100051E40E940123DC01CB018E01015B1F4FA6
:103D2000BC01CD010E941F22DC01CB01F80191836F
:103D3000808327C0CE018F5A9F4F20E731E0FC01DE
:103D400031832083CE018F5A9F4FFC018081918166
:103D50008C01C8010197F1F78C01CE018F5A9F4F5A
:103D6000FC0111830083CE01815B9F4F9E01215B8B
:103D70003F4FF9012081318121503040FC013183D6
:103D80002083CE01815B9F4FFC0180819181009750
:103D900089F62FC08E01015B1F4FCE01855B9F4FBF
:103DA000FC0160817181828193810E941F22DC016C
:103DB000CB01F80191838083CE018D5A9F4F9E01E4
:103DC000215B3F4FF90120813181FC013183208348
:103DD000CE018D5A9F4FFC01808191818C01C801D9
:103DE0000197F1F78C01CE018D5A9F4FFC01118391
:103DF00000830E943608009729F084EE93E00E9429
:103E0000641814C08091F103282F30E08091F203F0
:103E1000882F90E0280F391F8091F303882F90E0BE
:103E2000820F931F0E94641801C000009E012B5A4C
:103E30003F4F80E090E0AAEFB3E4F90180839183E3
:103E4000A283B3838E01075A1F4FCE018B5A9F4F17
:103E5000FC01608171818281938126E636E646E627
:103E600055E40E940123DC01CB01F801808391839A
:103E7000A283B383CE01875A9F4F11E0FC0160817A
:103E800071818281938120E030E040E85FE30E940D
:103E9000B32188230CF010E0112349F0CE01835A9E
:103EA0009F4F21E030E0FC013183208374C0CE01BC
:103EB000875A9F4F11E0FC0160817181828193815B
:103EC00020E03FEF4FE757E40E94FD2218160CF068
:103ED00010E0112309F44DC0CE018B5A9F4FFC0115
:103EE000608171818281938120E030E040E251E481
:103EF0000E940123DC01CB018E01035A1F4FBC013C
:103F0000CD010E941F22DC01CB01F8019183808347
:103F100027C0CE01815A9F4F20E731E0FC01318359
:103F20002083CE01815A9F4FFC01808191818C01B9
:103F3000C8010197F1F78C01CE01815A9F4FFC0116
:103F400011830083CE01835A9F4F9E01235A3F4F16
:103F5000F9012081318121503040FC0131832083DF
:103F6000CE01835A9F4FFC0180819181009789F691
:103F70002FC08E01035A1F4FCE01875A9F4FFC015D
:103F800060817181828193810E941F22DC01CB01BB
:103F9000F80191838083CE018F599F4F9E01235A50
:103FA0003F4FF90120813181FC0131832083CE0113
:103FB0008F599F4FFC01808191818C01C80101972D
:103FC000F1F78C01CE018F599F4FFC0111830083C3
:103FD00089E793E020E433E0B9010E947823009759
:103FE00009F0B1C10E94C00484E493E00E94641807
:103FF0009E012D593F4F80E090E0AAEFB3E4F90114
:1040000080839183A283B3838E0109591F4FCE0110
:104010008D599F4FFC01608171818281938126E6D9
:1040200036E646E655E40E940123DC01CB01F801A7
:1040300080839183A283B383CE0189599F4F11E07E
:10404000FC01608171818281938120E030E040E851
:104050005FE30E94B32188230CF010E0112349F0A4
:10406000CE0185599F4F21E030E0FC013183208350
:1040700074C0CE0189599F4F11E0FC0160817181AC
:104080008281938120E03FEF4FE757E40E94FD22B9
:1040900018160CF010E0112309F44DC0CE018D5913
:1040A0009F4FFC01608171818281938120E030E02B
:1040B00040E251E40E940123DC01CB018E0105594D
:1040C0001F4FBC01CD010E941F22DC01CB01F80172
:1040D0009183808327C0CE0183599F4F20E731E031
:1040E000FC0131832083CE0183599F4FFC018081E5
:1040F00091818C01C8010197F1F78C01CE018359A0
:104100009F4FFC0111830083CE0185599F4F9E0173
:1041100025593F4FF9012081318121503040FC0168
:1041200031832083CE0185599F4FFC01808191818D
:10413000009789F62FC08E0105591F4FCE0189596E
:104140009F4FFC0160817181828193810E941F22B7
:10415000DC01CB01F80191838083CE0181599F4F0F
:104160009E0125593F4FF90120813181FC013183A6
:104170002083CE0181599F4FFC01808191818C0168
:10418000C8010197F1F78C01CE0181599F4FFC01C5
:104190001183008386E990E00E94591A0E94FC0B6B
:1041A0009E012F583F4F80E090E0AAEFB3E4F90161
:1041B00080839183A283B3838E010B581F4FCE015E
:1041C0008F589F4FFC01608171818281938126E627
:1041D00036E646E655E40E940123DC01CB01F801F6
:1041E00080839183A283B383CE018B589F4F11E0CC
:1041F000FC01608171818281938120E030E040E8A0
:104200005FE30E94B32188230CF010E0112349F0F2
:10421000CE0187589F4F21E030E0FC01318320839D
:1042200074C0CE018B589F4F11E0FC0160817181F9
:104230008281938120E03FEF4FE757E40E94FD2207
:1042400018160CF010E0112309F44DC0CE018F5860
:104250009F4FFC01608171818281938120E030E079
:1042600040E251E40E940123DC01CB018E0107589A
:104270001F4FBC01CD010E941F22DC01CB01F801C0
:104280009183808327C0CE0185589F4F20E731E07E
:10429000FC0131832083CE0185589F4FFC01808132
:1042A00091818C01C8010197F1F78C01CE018558ED
:1042B0009F4FFC0111830083CE0187589F4F9E01C1
:1042C00027583F4FF9012081318121503040FC01B6
:1042D00031832083CE0187589F4FFC0180819181DB
:1042E000009789F63FC08E0107581F4FCE018B58AB
:1042F0009F4FFC0160817181828193810E941F2206
:10430000DC01CB01F80191838083CE0183589F4F5C
:104310009E0127583F4FF90120813181FC013183F3
:104320002083CE0183589F4FFC01808191818C01B5
:10433000C8010197F1F78C01CE0183589F4FFC0112
:104340001183008372CD89E793E02CE433E0B90157
:104350000E947823009709F068CD0E94C0040E9453
:10436000FC0B63CD62CDD4D008F481E008950CD06D
:104370000AC102D140F0F9D030F021F45F3F19F0CA
:10438000EBC0511134C1EEC00FD198F39923C9F39A
:104390005523B1F3951B550BBB27AA27621773074B
:1043A000840738F09F5F5F4F220F331F441FAA1FFF
:1043B000A9F333D00E2E3AF0E0E830D091505040BF
:1043C000E695001CCAF729D0FE2F27D0660F771F6D
:1043D000881FBB1F261737074807AB07B0E809F04F
:1043E000BB0B802DBF01FF2793585F4F2AF09E3FE4
:1043F000510568F0B1C0FBC05F3FECF3983EDCF3C1
:10440000869577956795B795F7959F5FC9F7880F5C
:10441000911D9695879597F90895E1E0660F771FAE
:10442000881FBB1F621773078407BA0720F0621B3F
:10443000730B840BBA0BEE1F88F7E0950895BCD080
:1044400088F09F5790F0B92F9927B751A0F0D1F07D
:10445000660F771F881F991F1AF0BA95C9F712C007
:10446000B13081F0C3D0B1E00895C0C0672F782F7C
:104470008827B85F39F0B93FCCF386957795679573
:10448000B395D9F73EF490958095709561957F4FDF
:104490008F4F9F4F0895E89409C097FB3EF4909585
:1044A0008095709561957F4F8F4F9F4F9923A9F00D
:1044B000F92F96E9BB279395F6958795779567959C
:1044C000B795F111F8CFFAF4BB0F11F460FF1BC0E0
:1044D0006F5F7F4F8F4F9F4F16C0882311F096E973
:1044E00011C0772321F09EE8872F762F05C0662321
:1044F00071F096E8862F70E060E02AF09A95660FDA
:10450000771F881FDAF7880F9695879597F9089592
:10451000990F0008550FAA0BE0E8FEEF16161706D4
:10452000E807F907C0F012161306E407F50798F03C
:10453000621B730B840B950B39F40A2661F0232B55
:10454000242B252B21F408950A2609F4A140A695D1
:104550008FEF811D811D089597F99F6780E870E0B6
:1045600060E008959FEF80EC089500240A941616E9
:10457000170618060906089500240A941216130651
:10458000140605060895092E0394000C11F48823DF
:1045900052F0BB0F40F4BF2B11F460FF04C06F5FFB
:1045A0007F4F8F4F9F4F089557FD9058440F551FD1
:1045B00059F05F3F71F04795880F97FB991F61F0A5
:1045C0009F3F79F087950895121613061406551F1C
:1045D000F2CF4695F1DF08C0161617061806991F88
:1045E000F1CF86957105610508940895E894BB277D
:1045F00066277727CB0197F908958ADF08F48FEFB4
:1046000008950BD0C0CFB1DF28F0B6DF18F09523A6
:1046100009F0A2CFA7CF1124EACFC6DFA0F3959F60
:10462000D1F3950F50E0551F629FF001729FBB2799
:10463000F00DB11D639FAA27F00DB11DAA1F649F45
:104640006627B00DA11D661F829F2227B00DA11DF8
:10465000621F739FB00DA11D621F839FA00D611D7E
:10466000221F749F3327A00D611D231F849F600D9F
:10467000211D822F762F6A2F11249F5750408AF0D8
:10468000E1F088234AF0EE0FFF1FBB1F661F771F64
:10469000881F91505040A9F79E3F510570F05CCFA4
:1046A000A6CF5F3FECF3983EDCF386957795679550
:1046B000B795F795E7959F5FC1F7FE2B880F911D82
:1046C0009695879597F90895AA1BBB1B51E107C0E2
:1046D000AA1FBB1FA617B70710F0A61BB70B881F92
:1046E000991F5A95A9F780959095BC01CD01089521
:1046F000FB01DC018D91019080190110D9F3990B18
:064700000895F894FFCFBC
:1047060041544F4B0041540041542B4349504D55A1
:10471600583D310041542B43495053544152543D66
:10472600322C22544350222C223139322E31363843
:104736002E302E36222C38300041542B434950530C
:10474600544152543D322C22544350222C223139AA
:10475600322E3136382E302E33222C38300041544A
:104766002B43495053544152543D322C225443500A
:10477600222C223139322E3136382E302E37222C49
:1047860038300041542B43495053544152543D3222
:104796002C22544350222C223139322E3136382ED7
:1047A600302E3130222C38300041542B434950539F
:1047B600544152543D322C22544350222C2231393A
:1047C600322E3136382E302E39222C3830004154D4
:1047D6002B4349505345525645523D312C383000F3
:1047E60041542B43495053454E443D302C340041EF
:1047F600542B43495053454E443D322C34004461BA
:10480600726B4D6174746572426F747300475241E6
:104816005045532076322E30000100436F6E6E20D5
:10482600426F74006E6F7420636F6E6E00313131AB
:10483600600041542B434950434C4F53453D320091
:10484600353535007374617274656400303030003C
:00000001FF
